{
  "transactions": [
    {
      "hash": "0x08d5b05967038e24f5a1355c4b8400a632ec7593822db96abf9f0bec20d143b8",
      "transactionType": "CALL",
      "contractName": "HelperConfig",
      "contractAddress": "0xc7f2cf4845c6db0e1a1e91ed41bcd0fcc1b0e141",
      "function": "getConfig()",
      "arguments": [],
      "transaction": {
        "from": "0xcba52038bf0814bc586dee7c061d6cb8b203f8e1",
        "to": "0xc7f2cf4845c6db0e1a1e91ed41bcd0fcc1b0e141",
        "gas": "0x848a",
        "value": "0x0",
        "input": "0xc3f909d4",
        "nonce": "0x1",
        "chainId": "0xa4b1"
      },
      "additionalContracts": [],
      "isFixedGasLimit": false
    },
    {
      "hash": "0x3e42cc5604206c98bb03bfaf1d749b80f1a83ac1d895341fa054cdf71326d5ff",
      "transactionType": "CALL",
      "contractName": "HelperConfig",
      "contractAddress": "0xc7f2cf4845c6db0e1a1e91ed41bcd0fcc1b0e141",
      "function": "getConfig()",
      "arguments": [],
      "transaction": {
        "from": "0xcba52038bf0814bc586dee7c061d6cb8b203f8e1",
        "to": "0xc7f2cf4845c6db0e1a1e91ed41bcd0fcc1b0e141",
        "gas": "0x848a",
        "value": "0x0",
        "input": "0xc3f909d4",
        "nonce": "0x2",
        "chainId": "0xa4b1"
      },
      "additionalContracts": [],
      "isFixedGasLimit": false
    },
    {
      "hash": "0xb9175cb22e53e9c9596ce7405e248350811d6dbaed9a34f0d38d0a2cb2a2a4c2",
      "transactionType": "CALL",
      "contractName": null,
      "contractAddress": "0x0000000071727de22e5e9d8baf0edac6f37da032",
      "function": "handleOps((address,uint256,bytes,bytes,bytes32,uint256,bytes32,bytes,bytes)[],address)",
      "arguments": [
        "[(0xdcdF94053C9fCfe5BB7525c060B47Bbc6d166ce3, 0, 0x, 0xb61d27f6000000000000000000000000af88d065e77c8cc2239327c5edb3a432268e5831000000000000000000000000000000000000000000000000000000000000000000000000000000000000000000000000000000000000000000000000000000600000000000000000000000000000000000000000000000000000000000000044095ea7b30000000000000000000000009ea9b0cc1919def1a3cfaef4f7a66ee3c36f86fc0000000000000000000000000000000000000000000000000de0b6b3a764000000000000000000000000000000000000000000000000000000000000, 0x0000000000000000000000000100000000000000000000000000000001000000, 16777216, 0x0000000000000000000000000000010000000000000000000000000000000100, 0x, 0xc99dbf15c9612e684be0c345099af5cd4a68f6e9f552bc37a4b83a39fb9e551b7a673fbe070cc45214e66f3593bcf8b6b40744508b03f1a4a0af20351b7683911b)]",
        "0xCbA52038BF0814bC586deE7C061D6cb8B203f8e1"
      ],
      "transaction": {
        "from": "0xcba52038bf0814bc586dee7c061d6cb8b203f8e1",
        "to": "0x0000000071727de22e5e9d8baf0edac6f37da032",
        "gas": "0x15cf2f6",
        "value": "0x0",
        "input": "0x765e827f0000000000000000000000000000000000000000000000000000000000000040000000000000000000000000cba52038bf0814bc586dee7c061d6cb8b203f8e100000000000000000000000000000000000000000000000000000000000000010000000000000000000000000000000000000000000000000000000000000020000000000000000000000000dcdf94053c9fcfe5bb7525c060b47bbc6d166ce300000000000000000000000000000000000000000000000000000000000000000000000000000000000000000000000000000000000000000000000000000120000000000000000000000000000000000000000000000000000000000000014000000000000000000000000001000000000000000000000000000000010000000000000000000000000000000000000000000000000000000000000001000000000000000000000000000000000001000000000000000000000000000000010000000000000000000000000000000000000000000000000000000000000002600000000000000000000000000000000000000000000000000000000000000280000000000000000000000000000000000000000000000000000000000000000000000000000000000000000000000000000000000000000000000000000000e4b61d27f6000000000000000000000000af88d065e77c8cc2239327c5edb3a432268e5831000000000000000000000000000000000000000000000000000000000000000000000000000000000000000000000000000000000000000000000000000000600000000000000000000000000000000000000000000000000000000000000044095ea7b30000000000000000000000009ea9b0cc1919def1a3cfaef4f7a66ee3c36f86fc0000000000000000000000000000000000000000000000000de0b6b3a7640000000000000000000000000000000000000000000000000000000000000000000000000000000000000000000000000000000000000000000000000000000000000000000000000000000000000000000000000000000000000000000000000000000000000000000000000000000000000000000000000041c99dbf15c9612e684be0c345099af5cd4a68f6e9f552bc37a4b83a39fb9e551b7a673fbe070cc45214e66f3593bcf8b6b40744508b03f1a4a0af20351b7683911b00000000000000000000000000000000000000000000000000000000000000",
        "nonce": "0x3",
        "chainId": "0xa4b1"
      },
      "additionalContracts": [],
      "isFixedGasLimit": false
    }
  ],
  "receipts": [
    {
      "status": "0x1",
      "cumulativeGasUsed": "0x5f48",
      "logs": [],
      "logsBloom": "0x00000000000000000000000000000000000000000000000000000000000000000000000000000000000000000000000000000000000000000000000000000000000000000000000000000000000000000000000000000000000000000000000000000000000000000000000000000000000000000000000000000000000000000000000000000000000000000000000000000000000000000000000000000000000000000000000000000000000000000000000000000000000000000000000000000000000000000000000000000000000000000000000000000000000000000000000000000000000000000000000000000000000000000000000000000000",
      "type": "0x2",
      "transactionHash": "0x08d5b05967038e24f5a1355c4b8400a632ec7593822db96abf9f0bec20d143b8",
      "transactionIndex": "0x1",
      "blockHash": "0x07ae26d4d9619ce061a7b75ecdcb627f6ac4382448cdd4996ee865290f59b431",
      "blockNumber": "0xe866fe3",
      "gasUsed": "0x5f48",
      "effectiveGasPrice": "0x989680",
      "from": "0xcba52038bf0814bc586dee7c061d6cb8b203f8e1",
      "to": "0xc7f2cf4845c6db0e1a1e91ed41bcd0fcc1b0e141",
      "contractAddress": null,
      "gasUsedForL1": "0xd00",
      "l1BlockNumber": "0x1398170"
    },
    {
      "status": "0x1",
      "cumulativeGasUsed": "0x85483",
      "logs": [],
      "logsBloom": "0x00000000000000000000000000000000000000000000000000000000000000000000000000000000000000000000000000000000000000000000000000000000000000000000000000000000000000000000000000000000000000000000000000000000000000000000000000000000000000000000000000000000000000000000000000000000000000000000000000000000000000000000000000000000000000000000000000000000000000000000000000000000000000000000000000000000000000000000000000000000000000000000000000000000000000000000000000000000000000000000000000000000000000000000000000000000",
      "type": "0x2",
      "transactionHash": "0x3e42cc5604206c98bb03bfaf1d749b80f1a83ac1d895341fa054cdf71326d5ff",
      "transactionIndex": "0x5",
      "blockHash": "0xc44d5d4a6236284e18600ccf1cd9b8fb6c54c13d49310e8c8109b2113b4056aa",
      "blockNumber": "0xe866fe6",
      "gasUsed": "0x5f48",
      "effectiveGasPrice": "0x989680",
      "from": "0xcba52038bf0814bc586dee7c061d6cb8b203f8e1",
      "to": "0xc7f2cf4845c6db0e1a1e91ed41bcd0fcc1b0e141",
      "contractAddress": null,
      "gasUsedForL1": "0xd00",
      "l1BlockNumber": "0x1398170"
    },
    {
      "status": "0x1",
      "cumulativeGasUsed": "0xf66d0",
      "logs": [
        {
          "address": "0x0000000071727de22e5e9d8baf0edac6f37da032",
          "topics": [
            "0x2da466a7b24304f47e87fa2e1e5a81b9831ce54fec19055ce277ca2f39ba42c4",
            "0x000000000000000000000000dcdf94053c9fcfe5bb7525c060b47bbc6d166ce3"
          ],
          "data": "0x0000000000000000000000000000000000000000000000000000000300000000",
          "blockHash": "0xdc484d71359b6c8810beed4e65dfb1d0f2e6663cb34dc56dcc4404123e16fbbd",
          "blockNumber": "0xe866fe9",
          "transactionHash": "0xb9175cb22e53e9c9596ce7405e248350811d6dbaed9a34f0d38d0a2cb2a2a4c2",
          "transactionIndex": "0x9",
          "logIndex": "0x13",
          "removed": false
        },
        {
          "address": "0x0000000071727de22e5e9d8baf0edac6f37da032",
          "topics": [
            "0xbb47ee3e183a558b1a2ff0874b079f3fc5478b7454eacf2bfc5af2ff5878f972"
          ],
          "data": "0x",
          "blockHash": "0xdc484d71359b6c8810beed4e65dfb1d0f2e6663cb34dc56dcc4404123e16fbbd",
          "blockNumber": "0xe866fe9",
          "transactionHash": "0xb9175cb22e53e9c9596ce7405e248350811d6dbaed9a34f0d38d0a2cb2a2a4c2",
          "transactionIndex": "0x9",
          "logIndex": "0x14",
          "removed": false
        },
        {
          "address": "0xaf88d065e77c8cc2239327c5edb3a432268e5831",
          "topics": [
            "0x8c5be1e5ebec7d5bd14f71427d1e84f3dd0314c0f7b2291e5b200ac8c7c3b925",
            "0x000000000000000000000000dcdf94053c9fcfe5bb7525c060b47bbc6d166ce3",
            "0x0000000000000000000000009ea9b0cc1919def1a3cfaef4f7a66ee3c36f86fc"
          ],
          "data": "0x0000000000000000000000000000000000000000000000000de0b6b3a7640000",
          "blockHash": "0xdc484d71359b6c8810beed4e65dfb1d0f2e6663cb34dc56dcc4404123e16fbbd",
          "blockNumber": "0xe866fe9",
          "transactionHash": "0xb9175cb22e53e9c9596ce7405e248350811d6dbaed9a34f0d38d0a2cb2a2a4c2",
          "transactionIndex": "0x9",
          "logIndex": "0x15",
          "removed": false
        },
        {
          "address": "0x0000000071727de22e5e9d8baf0edac6f37da032",
          "topics": [
            "0x49628fd1471006c1482da88028e9ce4dbb080b815c9b0344d39e5a8e6ec1419f",
            "0xa867ae82732a0f3e770246fc6200f1d3459feff11de047fc8e56ca77e43d0d6a",
            "0x000000000000000000000000dcdf94053c9fcfe5bb7525c060b47bbc6d166ce3",
            "0x0000000000000000000000000000000000000000000000000000000000000000"
          ],
          "data": "0x00000000000000000000000000000000000000000000000000000000000000000000000000000000000000000000000000000000000000000000000000000001000000000000000000000000000000000000000000000000000000011b261a0000000000000000000000000000000000000000000000000000000000011b261a",
          "blockHash": "0xdc484d71359b6c8810beed4e65dfb1d0f2e6663cb34dc56dcc4404123e16fbbd",
          "blockNumber": "0xe866fe9",
          "transactionHash": "0xb9175cb22e53e9c9596ce7405e248350811d6dbaed9a34f0d38d0a2cb2a2a4c2",
          "transactionIndex": "0x9",
          "logIndex": "0x16",
          "removed": false
        }
      ],
      "logsBloom": "0x00000000000000000000000000000000000000000000000000000000000000000008000000000000000000010000000000000001000000000000020000200000000000000000000000000000000000000040000000000000000000000000200000000000020900000000000002000800000000000000000000000000000201000000000000000000000000000000002000000000000000000000000000000000020100000000000000400000000000000010000000000000000002000000000020002000000000400001000000000000000000000004000000000000000020000050000000000000000000000000200000000000000000008000000000000000",
      "type": "0x2",
      "transactionHash": "0xb9175cb22e53e9c9596ce7405e248350811d6dbaed9a34f0d38d0a2cb2a2a4c2",
      "transactionIndex": "0x9",
      "blockHash": "0xdc484d71359b6c8810beed4e65dfb1d0f2e6663cb34dc56dcc4404123e16fbbd",
      "blockNumber": "0xe866fe9",
      "gasUsed": "0x2840b",
      "effectiveGasPrice": "0x989680",
      "from": "0xcba52038bf0814bc586dee7c061d6cb8b203f8e1",
      "to": "0x0000000071727de22e5e9d8baf0edac6f37da032",
      "contractAddress": null,
      "gasUsedForL1": "0x360b",
      "l1BlockNumber": "0x1398170"
    }
  ],
  "libraries": [],
  "pending": [],
  "returns": {},
  "timestamp": 1723868281,
  "chain": 42161,
  "commit": "01c98cf"
}